:020000040800F2
:100000008807002091010008271E00089F1700089C
:10001000251E0008AB040008731F00080000000044
:100020000000000000000000000000002B1E00087F
:10003000AD04000800000000291E00082D1E000865
:10004000AB010008AB010008AB010008AB010008E0
:10005000AB010008AB010008AB010008AB010008D0
:10006000AB010008AB010008AB010008AB010008C0
:10007000AB010008AB010008AB010008AB010008B0
:10008000AB010008AB010008AB010008AB010008A0
:10009000AB010008AB010008AB010008AB01000890
:1000A000AB010008AB010008AB010008AB01000880
:1000B000911E0008AB010008AB010008AB0100086D
:1000C000AB010008AB010008AB010008AB01000860
:1000D000AB010008AB010008AB010008AB01000850
:1000E000AB010008AB010008AB01000800F002F80A
:1000F00000F03FF80AA090E8000C82448344AAF183
:100100000107DA4501D100F034F8AFF2090EBAE880
:100110000F0013F0010F18BFFB1A43F0010318473B
:10012000582A0000782A0000103A24BF78C878C105
:10013000FAD8520724BF30C830C144BF04680C60ED
:10014000704700000023002400250026103A28BF35
:1001500078C1FBD8520728BF30C148BF0B60704739
:10016000642900F07D80002070471FB51FBD10B5C9
:1001700010BD00F065F91146FFF7F7FF01F0A8FF89
:1001800000F083F903B4FFF7F2FF03BC00F086F937
:100190000948804709480047FEE7FEE7FEE7FEE71B
:1001A000FEE7FEE7FEE7FEE7FEE7FEE70448054957
:1001B000054A064B704700008F1E0008ED0000083E
:1001C0008801002088070020880300208803002081
:1001D0000FB41CB5074B06AA7B44694600900598EE
:1001E00000F00DF90020694600F01CF91CBC5DF818
:1001F00014FB0000490200002DE9F0410E460446C0
:10020000002020622046E168884730B3252805D0C9
:10021000D4E901219047206A401CF2E7E1682046BA
:1002200000278847050018D0A5F14100192802D8F9
:1002300020354FF400673246294620462760FFF7F5
:100240008FFF40B1012804D0F61D26F007060836BE
:10025000D8E7361DD6E72846DAE7206ABDE8F08100
:100260002DE9F0410646002410687529314616A58F
:1002700010D0AFF30080002802DA404213A507E057
:1002800031688A0701D512A502E0490704D511A5F6
:10029000012401E0AFF3008000210A2206F12407C7
:1002A00009E0B0FBF2FCB0FBF2F302FB1C003030C3
:1002B00078541846491C0028F3D123462A46304674
:1002C000BDE8F04100F03DB8000000002D00000046
:1002D0002B000000200000004FF0000200B5134684
:1002E00094469646203922BFA0E80C50A0E80C5056
:1002F000B1F12001BFF4F7AF090728BFA0E80C5007
:1003000048BF0CC05DF804EB890028BF40F8042BFF
:1003100008BF704748BF20F8022B11F0804F18BF6C
:1003200000F8012B704770477047704710B500F018
:100330007FF8006810BD10B5044600F079F804603D
:1003400010BD2DE9F0470D4699469246044600F14E
:1003500024080168880604D5E06921F010012160B5
:1003600000E00120A84201DD471B00E00027A16951
:100370007A1902EB0900081AA0612078C00602D49D
:100380002046AFF30080002608E0D4E901211AF8E6
:1003900006009047206A401C761C20624E45F4DB24
:1003A0002078C0060AD52046AFF3008006E0D4E9E5
:1003B000012130209047206A401C2062381EA7F19E
:1003C0000107F4DC07E0D4E9012118F805009047A3
:1003D000206A401C2062281EA5F10105F3DC20469E
:1003E000AFF300802078000602D50220BDE8F08738
:1003F0000120FBE701694A1C02610878704700B5DB
:100400008FB0CDE901310021059105497944CDE94D
:10041000031011466846FFF7EFFE0FB000BD000065
:10042000E5FFFFFF0A6802F8010B0A607047000051
:10043000004870472801002000487047280100202C
:100440007546FFF7F9FFAE4605006946534620F0B2
:100450000700854618B020B5FFF7A8FEBDE820408C
:100460004FF000064FF000074FF000084FF0000B70
:1004700021F00701AC46ACE8C009ACE8C009ACE823
:10048000C009ACE8C0098D46704710B50446AFF30B
:1004900000802046BDE81040FFF774BE01491820D7
:1004A000ABBEFEE7260002007047FEE77047000083
:1004B00070B5044600F010F90546601C02D00448EF
:1004C0000078044400F008F9401BA042FAD370BD44
:1004D000280000202DE9F84FDFF8B8910024A9F199
:1004E000040B23460F2709F1040AABF1040EC9E0FF
:1004F0000125A5402A40AA427DD1674ED1F804C00B
:10050000ACEB0608B44532D014DCBCF1030F3AD092
:1005100009DCBCF1000F2AD0BCF1010F1CD0BCF1EA
:10052000020F31D11DE0BCF1110F17D0BCF1120F39
:100530002AD119E0B8F5881F19D006DCB8F5803F3C
:1005400015D0B8F5801F1FD111E0B8F5001F0ED0EF
:10055000B8F5041F18D10AE0CB6815E0CB681B1D65
:1005600012E0CB6808330FE0CB680C330CE08B68EB
:100570002BB1012B4FF0080303D0456104E00423A5
:1005800002E0056100E00023FF2A01D8064601E0F1
:1005900000F104064FEA840501D9A5F12005D6F83B
:1005A000008007FA05FC28EA0C0803FA05F548EA7A
:1005B0000508C6F800804D68ED0062D5374DAE697C
:1005C00046F00106AE61AD6924F0030605F00105B1
:1005D0000095334D06EB050CDCF80850A607360FE6
:1005E00007FA06F825EA0805DFF8B880404503D188
:1005F0004FF0000817E044E0DFF8AC80404502D13E
:100600004FF001080FE0DFF8A480404502D14FF021
:10061000020808E0DFF89880404502D14FF0030857
:1006200001E04FF0040808FA06F848EA0508CCF89B
:1006300008804D68D9F80060ED024D4601D516439B
:1006400000E096432E604D68DAF80060AD02554632
:1006500001D5164300E096432E604D68DBF800603C
:10066000AD035D4601D5164300E096432E604D680C
:10067000DEF80060ED03754601D5164300E09643B1
:100680002E60641C0D682A46E5407FF431AFBDE85A
:10069000F88F000008040140000011100010024013
:1006A0000000014000080140000C01400010014022
:1006B000001401408068084000D001207047C268E3
:1006C00021EA02030A4043EA0241016170470AB18C
:1006D000016170470904FBE701488068704700002A
:1006E0002800002070B5040025D094F83D000025B6
:1006F00020B984F83C50204600F00EFB242084F8FA
:100700003D002068016821F0010101602068016856
:1007100041F4004101602068016821F4004101605A
:1007200000F074FC4D4A6168914201D84C4900E0E8
:100730004C49884201D2012070BD4B492368B0FB6F
:10074000F1F15E6826F03F060E435E6063689342F7
:1007500006D94FF4967359434FF47A73B1FBF3F112
:100760002368491C1E6A26F03F06314319626168FE
:10077000914210D84900401EB0FBF1F2521CC2F366
:100780000B02042A01D2042022E0B0FBF1F0401C4D
:10079000C0F30B001CE0A268F2B301EBC10303EB52
:1007A0000116431EB3FBF6F35B1C43F480431B05A9
:1007B00049D092B301EBC10202EB0111401EB0FB24
:1007C000F1F0401CC0F30B0040F4804040F40040C6
:1007D0002168CA694CF6FF739A431043C861D4E993
:1007E000071001432068026822F0C0021143016033
:1007F000D4E9030101432068826848F2FF339A4339
:1008000011438160D4E9050108432168CA6822F0D8
:10081000FF021043C86001E00EE016E020680168A6
:1008200041F0010101602564202084F83D0025632A
:1008300084F83E50002070BD01EB4106431EB3FB1F
:10084000F6F35B1CB3E70120C2E701EB4101401E58
:10085000B0FBF1F0401CC0F30B00B7E7A08601002D
:1008600080841E0000093D0040420F002DE9F84F32
:100870001F4690468A460446DDF82890FFF72CFF75
:10088000054694F83D0020287FD1192301224049D4
:100890002046009501F0E8F8002876D194F83C0055
:1008A000012872D0012084F83C0020680168C90743
:1008B00003D1016841F0010101602068016821F461
:1008C00000610160212084F83D00102084F83E0082
:1008D00000262664C4F824806785608D20852D4815
:1008E000E0622B464A465146204600F071FF90B91F
:1008F000206841698069009036E02A4649462046D2
:1009000001F090F950B1206C042804D120680168EE
:1009100041F4007101600120BDE8F88F606A216830
:1009200000780861606A401C6062618D491E6185C3
:10093000218D491E89B2218522685369DB435B07FB
:100940000BD451B100781061606A401C6062608D08
:10095000401E6085208D401E20852A46494620463F
:1009600001F056F80028CED1208D0028C5D154F8CA
:100970003D0B016841F400710160202004F81E095C
:10098000E67766770020C7E7FFE70220C4E70000AC
:10099000020010000000FFFF2DE9FF4F83B000258B
:1009A000DDE910799A4693460446DDF848800095C3
:1009B000FFF792FE064694F83D0020287CD11923CB
:1009C000012285492046009601F04EF80028F5D115
:1009D00094F83C0001286FD0012084F83C00206886
:1009E0000168C90703D1016841F001010160206875
:1009F000016821F400610160222084F83D0040205C
:100A000084F83E0025646762A4F82A90608D2085F2
:100A10007248E062CDE9008653465A462046049962
:100A200000F024FF00287DD1208DDFF8B49120272D
:100A300068B1012814D00228206801681ED041F452
:100A4000806101602068416980690090B6E020689B
:100A5000416981690091016841F400710160ADE074
:100A60002068016821F48061016072B620684169E4
:100A700081690091016841F400710AE041F400616C
:100A8000016072B62068416981690091016821F4B2
:100A90008061016062B691E0032868D801280CD01B
:100AA000022843464FF000024946204600960FD0E8
:100AB00000F0DAFFB0BB10E08BE032464146204642
:100AC00001F078F870BB20680069616A08706CE01A
:100AD00000F0CAFF30BB72B634E02068016821F430
:100AE0008061016072B620680069616A0870606A9E
:100AF000401C6062208D401E2085608D401E6085F8
:100B0000384846F2A8110068B0FBF1F0C0EBC00015
:100B100000EB80000090401E009008D020684069E3
:100B2000C04300E029E040070CD50098F3E744F803
:100B3000305F6773A573206940F02000206162B6C2
:100B400025731AE02068016841F400710160206893
:100B50000069616A0870606A401C6062218D491EEC
:100B60002185618D491E618562B621681BE0324690
:100B70004146204601F01EF818B1012007B0BDE83B
:100B8000F08F20680069616A0870606A401C6062CA
:100B9000218D491E2185618D491E618521684A6923
:100BA000D24352070AD409690170606A401C60622E
:100BB000208D401E2085608D401E6085208D002880
:100BC0007FF46AAF84F83D7084F83E5084F83C505E
:100BD000D4E70220D2E70000020010000000FFFF6F
:100BE00004000100340000202DE9FF4F83B09A4635
:100BF000DDE9119793460446DDF84080FFF76CFD70
:100C0000054694F83D0020287FD119230122404950
:100C10002046009500F028FF002876D194F83C008B
:100C2000012872D0012084F83C0020680168C907BF
:100C300003D1016841F0010101602068016821F4DD
:100C400000610160212084F83D00402084F83E00CE
:100C500000262664C4F82480A4F82A90608D20859C
:100C60002C48E062CDE9007553465A462046049967
:100C700000F07AFE70B930E02A463946204600F08E
:100C8000D1FF58B1206C042804D12068016841F4D8
:100C900000710160012007B0BDE8F08F606A216833
:100CA00000780861606A401C6062218D491E89B22B
:100CB0002185628D521E628522685369DB435B0782
:100CC0000BD469B100781061606A401C6062208DAD
:100CD000401E2085608D401E6085208D0028CBD170
:100CE0002A463946204600F093FE0028CAD154F81F
:100CF0003D0B016841F400710160202004F81E09D9
:100D0000E67766770020C6E7FFE70220C3E700002A
:100D1000020010000000FFFF30B585B000210091F7
:100D20000191029103911E4D03681E4C1221032272
:100D30001D48AB4216D1A36943F00803A361A36920
:100D4000039203F008030493C023CDE90031694600
:100D5000FFF7C0FBE06940F40010E061E06900F4D7
:100D6000001019E0114DAB4217D1A36943F00803FD
:100D7000A361A369039203F0080304934FF4406353
:100D8000CDE900316946FFF7A5FBE06940F480003A
:100D9000E061E06900F48000049005B030BD00001F
:100DA0000054004000100240000C01400058004078
:100DB0000248816802781144816070472800002051
:100DC000074810B5016841F010010160032000F0F0
:100DD00075F80F2000F006F800F024F8002010BD90
:100DE0000020024070B50D4D04464FF47A7128780A
:100DF000B1FBF0F00A490968B1FBF0F000F0CCFA61
:100E000048B9102C07D200222146501E00F036F8B7
:100E100000206C6070BD012070BD00002800002023
:100E2000340000200C4808B5816941F0010181615E
:100E3000816901F001010091C16941F08051C161F6
:100E4000C06900F0805000900448416821F0E061E2
:100E500041F00071416008BD0010024000000140F7
:100E6000002809DB00F01F020121914040098000A9
:100E700000F1E020C0F8001170470000F0B40E4B04
:100E80001B680C46C3F30223C3F10705042D00D9E8
:100E90000425191D072901D2002300E0DB1E0126CD
:100EA00006FA05F1491E214099409E40761E1640E3
:100EB0003143F0BC01F05EB80CED00E0064900F0F3
:100EC000070208684FF6FF03184040EA0220034A71
:100ED00010430860704700000CED00E00000FA05C8
:100EE0002DE9F0470F46050061D0434E306800F011
:100EF0000700B84209D2306820F00700384330605C
:100F0000306800F00700B84251D128683B4C810797
:100F100012D5400703D5606840F4E060606028782F
:100F2000000703D5606840F4605060606068A9689D
:100F300020F0F000084360602878C00728D0686877
:100F4000012810D02168022810D0890700292EDA44
:100F5000616821F0030101436160FFF7BDFB80463A
:100F600041F288390DE021688903EFE78901EDE757
:100F7000FFF7B2FBA0EB0801494502D90320BDE809
:100F8000F0876068696800F00C00B0EB810FEFD16A
:100F9000306800F00700B8420BD9306820F0070035
:100FA00038433060306800F00700B84201D00120BB
:100FB000E5E72878400705D56068E96820F4E06037
:100FC000084360602878000706D56068296920F426
:100FD000605040EAC100606000F028F86168084A8B
:100FE000C1F30311515CC840064908600648006817
:100FF000FFF7F8FE0020C2E7002002400010024088
:10100000602B0008340000202C0000200448054913
:1010100000684968044AC1F30221515CC840704726
:101020003400002000100240702B00080E4A516866
:101030000E4801F00C03042B11D0082B0FD10C48E3
:10104000C1F38343C903C05C0AD55168084AC1F3A0
:101050004041921E515C054A5043B0FBF1F070478D
:1010600004494843704700000010024000127A0013
:10107000502B000800093D002DE9F84F040070D006
:101080002078C04DC00749D06868C0F381000128AE
:1010900007D06868C0F38100022809D16868C003DE
:1010A00006D52868800339D560680028E7D035E088
:1010B0006068B0F5803F0BD010B1B0F5A02F11D013
:1010C000286820F480302860286820F4802002E01E
:1010D000286840F480302860606890B1FFF7FCFA1F
:1010E00006460AE0286840F480202860F0E700BF48
:1010F000FFF7F2FA801B642873D828688003F7D5BD
:101100000CE0FFF7E9FA064605E000BFFFF7E4FA56
:10111000801B6428F0D828688003F7D420789A4E82
:1011200080074FF001094FF0000839D5686810F0CA
:101130000C0F07D06868C0F38100022809D16868E5
:10114000C00306D42868800714D52069012808D177
:1011500010E02069B0B1C6F80090FFF7BDFA07466D
:1011600005E00AE1FFF7B8FAC01B0228C4D82868D6
:101170008007F7D52868616920F0F80040EAC100CF
:1011800028600DE0C6F80080FFF7A6FA074604E0E5
:10119000FFF7A2FAC01B022823D828688007F7D4DB
:1011A000207800072CD57948A169D9B1C0F8009002
:1011B000FFF792FA074604E0FFF78EFAC01B0228F9
:1011C0000FD8686A8007F7D571484FF4FA51006864
:1011D000B0FBF1F0009000BF0098411E0091FAD2E0
:1011E0000EE080E0C0F80080FFF776FA074604E0E2
:1011F000FFF772FAC01B022875D8686A8007F7D417
:101200002078400760D5E8690027C00008D4E86965
:1012100040F08050E861E869012700F080500090BC
:101220005C480168C90513D40168834641F48071A4
:101230000160FFF751FA824606E000BFFFF74CFA63
:10124000A0EB0A0064284ED8DBF80000C005F5D5F5
:10125000E06801280AD008B1052813D0286A20F0D8
:1012600001002862286A20F0040002E0286A40F0A9
:1012700001002862E06841F2883B98B1FFF72CFA40
:1012800082460BE0286A40F004002862EEE700BFC7
:10129000FFF722FAA0EB0A0159455AD8286A8007BD
:1012A000F6D50CE0FFF718FA824605E0FFF714FACE
:1012B000A0EB0A0159454CD8286A8007F6D41FB123
:1012C000E86920F08050E861E06988B36968C1F39B
:1012D0008101022944D00228C6F8608004D0FFF7BB
:1012E000FBF9044638E034E0FFF7F6F9074604E07E
:1012F000FFF7F2F9C01B02282BD828688001F7D429
:10130000206AB0F5803F05D16868A16820F40030FC
:1013100008436860D4E908010843696821F474113E
:1013200008436860C6F86090FFF7D6F9044606E007
:1013300025E000BFFFF7D0F9001B022809D8286874
:101340008001F7D51BE000BFFFF7C6F9001B02289C
:1013500002D90320BDE8F88F28688001F4D40EE09C
:101360000128F7D06868226A00F48031914204D1E4
:10137000616A00F47010884201D00120EAE7002081
:10138000E8E70000001002400000424280044242B0
:10139000340000200070004010B5401EB0F1807F86
:1013A00001D3012010BD4FF0E02460610F216017D0
:1013B00000F0E0FD0020A06107202061002010BDAA
:1013C0007047704770B590F83C20012A26D0012460
:1013D00080F83C40022280F83D2003685A689D68EE
:1013E00022F070060A6832435A600D4B02689A4236
:1013F00008D0B2F1804F05D00A4B9A4202D00A4B76
:101400009A4204D1496825F080031943916080F81D
:101410003D40002180F83C10084670BD022070BDA0
:10142000002C0140000400400008004010B50400FA
:1014300003D094F83D0010B107E0012010BD00205A
:1014400084F83C00204600F01FF8022084F83D009C
:10145000211D206800F022FD012084F8460084F858
:101460003E0084F83F0084F8400084F8410084F88E
:10147000420084F8430084F8440084F8450084F86E
:101480003D00002010BD000008B50068B0F1804F9D
:1014900012D10A48C16941F00101C161C06900224D
:1014A00000F00100009011461C20FFF7E7FCBDE8AA
:1014B00008401C20FFF7D4BC08BD0000001002400B
:1014C00090F83D10012901D001207047022180F8D9
:1014D0003D100168CA6842F00102CA6000680B4909
:1014E000884208D0B0F1804F05D00949884202D027
:1014F0000849884204D1816801F00701062903D018
:10150000016841F00101016000207047002C01409A
:1015100000040040000800400168CA6822F001028F
:10152000CA6001680A6A41F211131A4207D10A6AB5
:101530009B101A4203D10A6822F001020A600121BD
:1015400080F83D100020704770B5044690F83C00CC
:101550000025012817D0012684F83C60022084F879
:101560003D002068826822F0770222F47F42826088
:101570000868502838D00DDC20284FD005DC90B307
:10158000102811D14AE0022070BD302846D04028F2
:101590000AD13BE060282FD070280DD0B0F5805FD5
:1015A00003D0B0F5005F12D0012584F83D60002023
:1015B00084F83C00284670BDCB68D1E90121206841
:1015C00000F0A2FC2068816841F0770109E0CB6857
:1015D000D1E90121206800F097FC2068816841F47E
:1015E00080418160E1E719E0CA684968206800F03D
:1015F0009DFC5021206806E0CA684968206800F018
:10160000A6FC6021206800F089FCCEE7CA68496822
:10161000206800F08BFC40212068F4E72268014636
:101620001046F0E7704770B50446006801694FF056
:101630000005C943890715D4C168C943890711D476
:10164000E91E01610120207720688069800720461B
:1016500002D0FFF7E7FF04E000F098F8204600F022
:1016600096F8257720680169C943490717D4C168EE
:10167000C943490713D46FF00401016102202077A8
:101680002068806910F4407F204602D0FFF7CAFF2F
:1016900004E000F07BF8204600F079F82577206818
:1016A0000169C943090716D4C168C943090712D49F
:1016B0006FF008010161042020772068C06980076D
:1016C000204602D0FFF7AEFF04E000F05FF82046AE
:1016D00000F05DF8257720680169C943C90617D471
:1016E000C168C943C90613D46FF010010161082015
:1016F00020772068C06910F4407F204602D0FFF7B1
:1017000091FF04E000F042F8204600F040F8257711
:1017100020680169C943C90708D1C168C943C9071D
:1017200004D1891E0161204600F032F82068016969
:10173000C943090609D4C168C943090605D46FF035
:10174000800101612046FFF73BFE20680169C94323
:10175000490609D4C168C943490605D46FF0400160
:101760000161204600F01AF820680169C943890622
:101770000BD4C168C943890607D46FF02001016109
:101780002046BDE87040FFF71CBE70BD7047704733
:1017900002210148FEF793BF000801407047FEE7B1
:1017A00001684A69D24352050FD46FF480624A61DE
:1017B000002140F8301F202242738173026942F0F9
:1017C000040202610173012070470020704700008D
:1017D000F8B50446C06A1E460D461746082807D0CD
:1017E000012805D010F5803F02D0206B122804D1CB
:1017F0002068016841F480710160134600224FF0B7
:1018000001112046009600F02FF940B120680068D1
:10181000C00502D54FF4007020640320F8BD206994
:10182000B0F5804F0ED00620216800EAD51040F0B8
:10183000F000086133463A460B49204600F05CF957
:1018400078B902E005F0FE0000E0E8B22168086126
:10185000054933463A46891F204600F04DF90028D5
:10186000DCD00120F8BD0000080001002DE9F84F90
:101870000446006889460B9D01689846174641F466
:10188000806101602068016841F480710160009509
:101890004FF0011B0022594620460A9B00F0E4F855
:1018A0004FF4007A40B120680068C00501D5C4F843
:1018B00040A00320BDE8F88F216809F0FE00086110
:1018C0002B46284920460A9A00F016F9F0BB2068FA
:1018D0004169806900902A4620460A9900F0A2F9E1
:1018E00040B1206C04283AD12068016841F40071AD
:1018F000016034E0FEB2B8F1010F09D02168380A66
:1019000008612A4620460A9900F08CF90028E8D19F
:10191000206806612A4620460A9900F083F90028CB
:10192000DFD12068016841F48071016000950022D8
:10193000594620460A9B00F097F80028B3D1216849
:1019400009F0FF0040F00100086100E007E02B46CD
:10195000044920460A9A00F0CFF80028AAD00120B6
:10196000A8E70000020001002DE9F84304460068E2
:101970000D46DDE9089701689846164641F48071E6
:1019800001604B4600224FF001112046009700F005
:101990006BF848B120680068C00502D54FF40070AC
:1019A00020640320BDE8F883216805F0FE0008618B
:1019B0003B464A461549204600F09EF888B9206803
:1019C0004169806900903A464946204600F02AF96C
:1019D00048B1206C042804D12068016841F40071EA
:1019E00001600120DEE7F5B2B8F1010F09D02168EE
:1019F000300A08613A464946204600F013F90028AB
:101A0000E7D1206805610020CCE70000020001005A
:101A100070B516460D4604461EE02046FFF7C0FE90
:101A200008B1012070BD681C16D0FEF755FE801B62
:101A3000A84200D885B920684069C04340070BD54B
:101A4000002044F8300F20216173A073216941F018
:101A5000200121612073E4E720684069C04340070A
:101A6000DBD4002070BD00002DE9F04798461746F2
:101A70000D460446C1F30746DDF820902AE000BF7A
:101A8000B8F1FF3F26D0FEF727FEA0EB0901414544
:101A900002D8B8F1000F1DD12068012E16D0806940
:101AA00025EA00000004000C12D00020B84211D139
:101AB000002044F8300F20216173A073216941F0A8
:101AC0002001216120730120BDE8F0874069E7E72C
:101AD0000120EBE72068012E0AD0806925EA00008A
:101AE0000004000C06D00020B842C9D00020EBE76B
:101AF0004069F3E70120F7E72DE9F04798461646DD
:101B00000D4604464FF000094FF0200AC1F3074785
:101B100023E020684069C043400515D4206801686F
:101B200041F40071016021686FF480604861C4F87D
:101B3000309084F83DA084F83E90216C41F004017F
:101B4000216484F83C9021E0701C06D0FEF7C4FDAF
:101B5000A0EB0800B04203D816B1012F1FD021E03E
:101B60002068012F15D0806925EA00000004000CD0
:101B700018D000BF44F8309F84F80DA084F80E9070
:101B8000216941F02001216184F80C900120BDE819
:101B9000F087406925EA00000004000CEAD12068C3
:101BA000406901E02068806925EA00000004000C1B
:101BB000AFD1ECE72DE9F041002590460E460446F2
:101BC000202728E04069C043C0060CD454F8301BDD
:101BD0006FF01000486144F810596777A577206AC4
:101BE0002062257714E0FEF777FDA0EB0800B042F5
:101BF00000D886B920684069C04340060BD544F838
:101C0000305F6773A573206940F020002061257361
:101C10000120BDE8F08120684169C9434906D1D45B
:101C20000020F6E770B516460D4604461EE0204635
:101C3000FFF7B6FD08B1012070BD681C16D0FEF795
:101C40004BFD801BA84200D885B920684069C0437D
:101C500000060BD5002044F8300F20216173A073DB
:101C6000216941F0200121612073E4E72068406987
:101C7000C0430006DBD4002070BD0000F0B585B085
:101C8000012504A8CDE900054FF47A742B4675228E
:101C9000D02102941B48FEF77FFE9DF810006828B3
:101CA0002ED1002703AE8DF80C700096CDE90154BB
:101CB00001236B22D0211348FEF796FF07208DF8F1
:101CC0000C000096CDE9015401231922D0210D48C2
:101CD000FEF78AFF8DF80C700096CDE901540123C0
:101CE0001C22D0210748FEF77FFF8DF80C7000966C
:101CF000CDE9015401231B22D0210248FEF774FFD5
:101D000005B0F0BD8C000020F0B585B00024274858
:101D10000094019402940394816941F0100181615F
:101D2000816901F010010491816941F02001816114
:101D3000816901F020010491816941F00401816110
:101D4000816901F004010491816941F00801816118
:101D50008069174E00F008004FF4005504900022EF
:101D600029463046FEF7B3FC124F002202213846C6
:101D7000FEF7ADFC0320CDE9024000950125694640
:101D800001953046FEF7A6FB0220CDE90005CDE91E
:101D9000024069463846FEF79DFB18208DE8310069
:101DA00069460548FEF796FB05B0F0BD00100240FD
:101DB0000010014000080140000C014010B586B041
:101DC00000241748009401940294039404944FF063
:101DD00080410594016041F61F41C0E9011441F2C0
:101DE0008731C0E903148461FFF720FB08B172B6A4
:101DF000FEE74FF48050009069460948FFF7A4FBC6
:101E000008B172B6FEE7049404A905480594FFF7EB
:101E1000D9FA002801D072B6FEE706B010BD000066
:101E2000E0000020FEE7FEE770477047FEF7C0BF06
:101E300030B58FB028216846FEF74EFA14210AA863
:101E4000FEF74AFA01210804CDE9001000240294AB
:101E500002250491CDE907504FF4E010099068463F
:101E6000FFF70AF908B172B6FEE70F20CDE90A05BF
:101E70004FF48060CDE90C4002210AA80E94FFF7D0
:101E80002FF8002801D072B6FEE70FB030BD7047C2
:101E90000148FFF7C8BB0000E0000020F0B5026871
:101EA000164B174C174D4FF08047984205D0B8425B
:101EB00003D0A04201D0A84203D122F070064A68A4
:101EC0003243984205D0B84203D0A04201D0A84284
:101ED00003D122F44074CA6822434C6922F0800284
:101EE000224302608A68C2620A688262984201D113
:101EF0000969016301214161F0BD0000002C01402E
:101F0000000400400008004010B5846842EA032243
:101F100024F47F440A432243826010BD826822F089
:101F200070020A4342F007018160704710B5036AEE
:101F3000046A24F001040462846924F0F00444EA91
:101F4000021423F00A020A438461026210BD10B534
:101F5000036A046A24F010040462846923F0A00375
:101F600024F4704444EA023243EA011182610162BE
:101F700010BDFEE70907090E002804DB00F1E02090
:101F800080F80014704700F00F0000F1E02080F8A6
:101F9000141D704710B5802000F050F80024202058
:101FA00000F06CF8641C462CF9DB10BD10B5322033
:101FB000FEF77EFA302000F041F80520FEF778FAAF
:101FC000302000F03BF80120FEF772FA302000F0DC
:101FD00035F80A20FEF76CFA202000F02FF80A20CE
:101FE000FEF766FA282000F029F80120FEF760FAD3
:101FF000082000F023F80120FEF75AFA012000F033
:102000001DF80120FEF754FA0120FEF751FA0620D0
:1020100000F014F80120FEF74BFABDE810400C2048
:1020200000F00CB810B1012805D102E041F08001A8
:1020300001E041F0C001C8B2AFF300801CB500F070
:10204000F00141F00C028DF8042041F0080100017C
:102050008DF8051040F00C018DF8061040F00800D6
:102060008DF8070064200090042301AA4E21024845
:10207000FEF7FCFB1CBD0000380000201CB500F082
:10208000F00141F00D028DF8042041F0090100013A
:102090008DF8051040F00D018DF8061040F0090094
:1020A0008DF8070064200090042301AA4E21024805
:1020B000FEF7DCFB1CBD00003800002010B5044614
:1020C00002E0641CFFF7DAFF20780028F9D110BD88
:1020D00086B0FEF775FEFFF7ABFEFFF715FE8F48E3
:1020E0008D498F4E00250160C0E901650C14C0E9DF
:1020F000035445618561C5610562FEF7F3FA08B1D5
:1021000072B6FEE78548874954300160C0E9016531
:10211000C0E9035445618561C5610562FEF7E2FAD5
:1021200008B172B6FEE7FFF749FEFFF7A7FDFFF71C
:102130003DFFFFF72FFFDFF8F0A17C4C03950DF179
:102140000C0B4FF47A796FF00D08049500957348E5
:10215000CDE901594E4601231C22D0215430FEF70F
:1021600043FD0620CDF800B0CDE901066B48012300
:102170003B22D0215430FEF70FFCBDF80C0040BAD2
:1021800000B22080BDF80E1049BA0FB26780BDF8CA
:10219000101049BA0EB2A68000F040F9424600F095
:1021A00090FC00F001F92061384600F037F9424612
:1021B00000F087FC00F0F8F86061304600F02EF97E
:1021C000424600F07EFC00F0EFF8A0611021564678
:1021D0005046FEF76FFA60B14FF4005700223946BF
:1021E0005348FEF774FA08213046FEF763FA40B30D
:1021F00038E0FFF7CFFE4948A830FFF78DF90022FD
:1022000002214C48FEF763FA012251034848FEF7C9
:102210005EFA01210020A560FFF704FF46A0FFF74A
:102220004DFF03210120FFF7FDFE45A0FFF746FF0C
:1022300045A105A8A268FDF7CBFF05A8FFF73EFF63
:102240004DE06420FEF734F908213046FEF732FAFB
:1022500040B908213046FEF72DFA0028F9D0E06891
:10226000401CE060207BC0072C4800F1A8002AD069
:10227000FFF726F9A169084600F0B0FA6169074640
:10228000084600F0ABFA21690646084600F0A6FAB7
:10229000314600F041FA394600F03EFA00F010FAFB
:1022A00000F05CF800F080F82062E16900F062FB69
:1022B0002649606200F092FA10F17E5F0FD9A068A3
:1022C000401CA0600BE0FFF727F90022022119480B
:1022D000FEF7FDF9012239461548FEF7F8F901210C
:1022E0000020FFF79FFE1AA0FFF7E8FE0321012060
:1022F000FFF798FE12A0FFF7E1FE13A105A8A26860
:10230000FDF766FF05A8FFF7D9FE206AE0614FF4EC
:102310004870FEF7CDF819E700540040380000205F
:10232000A086010000580040000C01400000002081
:102330000010014000080140485559204C4F43000F
:1023400053746570733D2000256400000000C8428E
:102350005374657020436F75746572002DE9F04108
:1023600006460F4600F0C6F8041E0D4618BF0120B1
:10237000284320F00040C0F17F6000F1E040C00F32
:102380000ED0301C18BF0120384320F00040C0F1AF
:102390007F6000F1E040C00F04BF0120FDF7CBFFDC
:1023A00020462946BDE8F08121F00042A2F16052AA
:1023B000B2F5801F01F0004328BFD2F17F6C0BD92A
:1023C0005FEA001C43EAC20242EB507018BF70473C
:1023D00028BF20F001007047B2F5801FBCBF18462F
:1023E00070474FEA410C1CF5001F02D2084600F06E
:1023F000BCBA70B500F029F800000089FFF7F6BFFD
:102400004FF00040A0F580007047000002494FF0F7
:10241000000000F024BB00BF0000F87F10F0004275
:1024200048BF4042B0FA80F310FA03F10AD0C3F17A
:102430001D0303F580634FEA415002EB035202EBA8
:10244000D12170474FF0000070470EF1020E2EF0C0
:10245000030E5EF8046B364205D4012A43EB0305F4
:1024600015F5001F12D8012841EB010C1CF5001FC7
:102470000CD80ED14FEAD17C15F5001F0CEB4C0C9B
:102480000CF1020C08BF4CEBD37C04E04FF0080CBD
:1024900001E04FEAD37C0CEB4C0526FA05F606F07A
:1024A0000706B6F1040C06D20EEB860CBDE87040B0
:1024B0004CF0010C6047DFE80CF0090B02024FF012
:1024C00000414FF00000A1F5002170BD19461046F3
:1024D000012851EB010418BFD4F5001484BF00207B
:1024E00001F0004170BD0808A0F500114FEA31016C
:1024F000704700002DE9F04101F5801CBCF5001F7C
:10250000C0F2C3804FEA115C21EA0C510CF1FD0CC2
:1025100041F480115FEA5C0C0CF5C07C01D34000F3
:1025200049413DA4890241EA905187028E0E0A0C6E
:10253000A45D04FB04F602FB06F6C6F14046A4FBCC
:102540000662F60D46EA422606FB06F4A4FB0123CA
:102550005242C3F1404338BF5B1EA6FB0242002437
:10256000E6FB0324D20B42EA4446A6FB0623A1FB6A
:1025700002E2A3FB07E4A4184FF0000252F10002AC
:10258000E3FB01426442C2F1404E38BFAEF1010E9E
:10259000A6FB04234FF00002E6FB0E32A2FB03462B
:1025A0004FF00004B61954F10004E2FB0264A1FBF1
:1025B00006E6A4FB07E816EB08064FF0000858F102
:1025C0000008E4FB01687642C8F1405838BFA8F122
:1025D0000108A2FB06E4A3FB08E52D194FF0000457
:1025E00054F10004E2FB0854A1FB05E6A7FB04E854
:1025F00018EB06084FF0000656F10006E1FB0486D2
:1026000018F1200556F10006A809A8F11B08B10928
:1026100008F03F08B8F10A0F40EA86601CD901EBC8
:102620000C51BDE8F08100BFFCF5EEE8E2DDD8D347
:10263000CFCBC7C3C0BDB9B6B4B1AEACA9A7A5A333
:10264000A19F9D9B9A9896959392908F8D8C8B8944
:102650008887868584838281A0FB006800FB01F265
:1026600008EB4208B8EB872807D5341858EB01046B
:10267000D5D5401C51F10001D1E7341A78EB0104A3
:10268000CDD4401E71F10001C9E75FEA4C0C5FEA4E
:102690009C5C0DD105D34FF0000001F00041BDE876
:1026A000F081BDE8F04170B5FFF7CFFE6DDBFFBEF6
:1026B000BDE8F0414FF00000004970470000F87F8E
:1026C00043004FEAD30C4FEA3C0C43401FBF400786
:1026D0000CF1605113F0FE4F70471CF0006F03D1F6
:1026E00000200CF0004170470CF0004343EA5070AA
:1026F00010B540EACC0000F0F2F800BF00000092F4
:102700004FEA0001FFF7EFBE4FF000414FF000002D
:10271000A1F500217047000090EA010F48BF81F049
:10272000004100F12E81421A3CBF801A89184FEAFD
:10273000D0524FF07F4C1CEA410FA2EBD15318BF8F
:102740009CEA026F00F03B804FF0004C4CEA002006
:102750004CEA012121FA03FC10EB0C0C1ED202F111
:10276000FF325FEA1C2040EBC25038BF70471CF0BC
:102770007F0F4FEA400C18BFBCF17F4F38BF704746
:10278000C3F12003994008BF20F00100BCF17F4F46
:1027900038BF7047A0F1C04000F0E7B84FEA3C00F6
:1027A000000A40EBC25028BF1CF0FF0F4FEA400C5C
:1027B000E6D018BFBCF17F4F38BF7047EAE79CEA0C
:1027C000026F05D010EA5C0F08BF00F000407047B0
:1027D00010B500F084F800BF64FBBE3E4FF47F0CE0
:1027E0001CEAD0121EBF1CEAD11392EA0C0F93EA26
:1027F0000C0F00F0478090EA010F48BF42F480724E
:102800004FF0004C4CEA00204CEA012102EB03029D
:10281000A0FB0113A2F50002002918BF43F0010339
:102820005B0028BF4FEA330342EB22425FEA132CDE
:102830004CEBC2502EBFBCEB436FB2F57C0F704720
:102840004FEA036CBCF1004F08BF20F00100B2F565
:102850007C0F38BF70470BD582F0FF0212F5803F26
:10286000C8BF704700F1C040D8BF00F000407047BB
:1028700000F5000C5FEA4C0C48BF7047B0F1C04057
:1028800000F073B890EA010F0CEAD11348BF42F48C
:102890008072624538BF634504D280EA010000F0CF
:1028A0000040704710B500F01AF800BF8900013EE3
:1028B00000F007B800F009B85FEA410C5FEA1C6C51
:1028C00008D080EA010000F050B85FEA400C5FEAEF
:1028D0001C6CF6D14FF00040A0F5800070470EF15F
:1028E000020E2EF0030E5EF8044B244204D44FEA8D
:1028F0004102B2F17F4F11D84FEA4003B3F17F4F4D
:102900000CD80ED14FEAD07CB2F17F4F0CEB4C0CBF
:102910000CF1020C08BF4CEBD17C04E04FF0080C2A
:1029200001E04FEAD17C0CEB4C0324FA03F404F0F1
:102930000704B4F1040C06D20EEB840CBDE8104081
:102940004CF0010C6047DFE80CF0070802024FF082
:102950000040A0F5800010BD0846420018BFD2F12B
:10296000807288BF00F0004010BDFF2141EAD050C6
:10297000C005704790EA010F48BF81F000413FF564
:10298000D2AE421A04D882F00042A0EB02001144F9
:102990004FEAD0524FF07F4C1CEA410FA2EBD153CB
:1029A00018BF9CEA026F4AD04FF0004C4CEA00205E
:1029B0004CEA012121FA03FCB0EB0C0C0FD412F00D
:1029C000FE0F36D05FEA4C001DD5001240EBC2501E
:1029D00038BF70471CF03F0F18BF70470BE0A2F1E3
:1029E00001025FEA1C2040EBC25038BF70471CF068
:1029F0007F0F18BF7047C3F12003994014BF401EDA
:102A000020F00100704780084FEA122308BF70478A
:102A1000B0FA80FCA2EB0C02CCF1280C60FA0CF0AE
:102A200093EA122F04BF00EBC25070474FEAC37005
:102A30007047130A5FEADC1008BF7047F6E79CEAAC
:102A4000026F04D010EA5C0F08BF0020704710B579
:102A5000FFF745FF40DFF63E81F0004070470CF085
:102A60000F03092B08BF082000F059800A2B0BD058
:102A7000082B18BF704708BF1CF0400F0AD04FF05A
:102A800000004FF0000170471CF0400F18BF4FF0DE
:102A9000004070471CF0100F08D020F0704300F089
:102AA0007F4242EAD3014FEA4370704700F0604032
:102AB00021F07F4242EA000201F07F4040EA72705A
:102AC00070474FF0FF0C4CF4E06C1CEA11531CBF34
:102AD0009CEA030C9445C2BFDA4201EB02517047F5
:102AE000002B0DD0BCF1000F0FD0002A01F00041E7
:102AF000A4BF41F0E04141F07F614FF0000070471A
:102B000001F000414FF00000704750EA01334FF0F0
:102B10009B0C18BF4CF0806C7FF478AC70471CF4B1
:102B2000801F11D01CF4E02F03D06FEACC31490094
:102B300070474FF04050EFF3008222F0704242EABB
:102B4000000282F3008870474FF0000070470102D6
:102B500002030405060708090A0B0C0D0E0F1010DE
:102B6000000000000000000001020304060708093D
:102B70000000000001020304982B00080000002060
:102B80003800000028010008D02B00083800002081
:102B90005007000044010008000000000000000091
:102BA0000000000000000000000000000000000025
:102BB0000000000000000000000000000000000015
:102BC0000100000010000000000000000024F400DC
:04000005080000ED02
:00000001FF
